{
  "contractName": "DiceRoller",
  "abi": [
    {
      "inputs": [
        {
          "internalType": "address",
          "name": "_vrfCoordinator",
          "type": "address"
        },
        {
          "internalType": "address",
          "name": "_link",
          "type": "address"
        },
        {
          "internalType": "bytes32",
          "name": "_keyHash",
          "type": "bytes32"
        },
        {
          "internalType": "uint256",
          "name": "_fee",
          "type": "uint256"
        }
      ],
      "stateMutability": "nonpayable",
      "type": "constructor"
    },
    {
      "anonymous": false,
      "inputs": [
        {
          "indexed": true,
          "internalType": "bytes32",
          "name": "requestId",
          "type": "bytes32"
        },
        {
          "indexed": true,
          "internalType": "address",
          "name": "roller",
          "type": "address"
        },
        {
          "indexed": false,
          "internalType": "uint8[]",
          "name": "rolledvalues",
          "type": "uint8[]"
        },
        {
          "indexed": false,
          "internalType": "int16",
          "name": "adjustment",
          "type": "int16"
        },
        {
          "indexed": false,
          "internalType": "int16",
          "name": "result",
          "type": "int16"
        }
      ],
      "name": "DiceLanded",
      "type": "event"
    },
    {
      "anonymous": false,
      "inputs": [
        {
          "indexed": true,
          "internalType": "bytes32",
          "name": "requestId",
          "type": "bytes32"
        },
        {
          "indexed": true,
          "internalType": "address",
          "name": "roller",
          "type": "address"
        }
      ],
      "name": "DiceRolled",
      "type": "event"
    },
    {
      "anonymous": false,
      "inputs": [
        {
          "indexed": true,
          "internalType": "address",
          "name": "previousOwner",
          "type": "address"
        },
        {
          "indexed": true,
          "internalType": "address",
          "name": "newOwner",
          "type": "address"
        }
      ],
      "name": "OwnershipTransferred",
      "type": "event"
    },
    {
      "anonymous": false,
      "inputs": [
        {
          "indexed": false,
          "internalType": "address",
          "name": "account",
          "type": "address"
        }
      ],
      "name": "Paused",
      "type": "event"
    },
    {
      "anonymous": false,
      "inputs": [
        {
          "indexed": false,
          "internalType": "address",
          "name": "account",
          "type": "address"
        }
      ],
      "name": "Unpaused",
      "type": "event"
    },
    {
      "stateMutability": "payable",
      "type": "fallback",
      "payable": true
    },
    {
      "inputs": [],
      "name": "owner",
      "outputs": [
        {
          "internalType": "address",
          "name": "",
          "type": "address"
        }
      ],
      "stateMutability": "view",
      "type": "function",
      "constant": true
    },
    {
      "inputs": [],
      "name": "paused",
      "outputs": [
        {
          "internalType": "bool",
          "name": "",
          "type": "bool"
        }
      ],
      "stateMutability": "view",
      "type": "function",
      "constant": true
    },
    {
      "inputs": [
        {
          "internalType": "bytes32",
          "name": "requestId",
          "type": "bytes32"
        },
        {
          "internalType": "uint256",
          "name": "randomness",
          "type": "uint256"
        }
      ],
      "name": "rawFulfillRandomness",
      "outputs": [],
      "stateMutability": "nonpayable",
      "type": "function"
    },
    {
      "inputs": [],
      "name": "renounceOwnership",
      "outputs": [],
      "stateMutability": "nonpayable",
      "type": "function"
    },
    {
      "inputs": [
        {
          "internalType": "address",
          "name": "newOwner",
          "type": "address"
        }
      ],
      "name": "transferOwnership",
      "outputs": [],
      "stateMutability": "nonpayable",
      "type": "function"
    },
    {
      "stateMutability": "payable",
      "type": "receive",
      "payable": true
    },
    {
      "inputs": [],
      "name": "refundTokens",
      "outputs": [],
      "stateMutability": "payable",
      "type": "function",
      "payable": true
    },
    {
      "inputs": [],
      "name": "pause",
      "outputs": [],
      "stateMutability": "nonpayable",
      "type": "function"
    },
    {
      "inputs": [],
      "name": "unpause",
      "outputs": [],
      "stateMutability": "nonpayable",
      "type": "function"
    },
    {
      "inputs": [],
      "name": "kill",
      "outputs": [],
      "stateMutability": "nonpayable",
      "type": "function"
    },
    {
      "inputs": [
        {
          "internalType": "address",
          "name": "_member",
          "type": "address"
        }
      ],
      "name": "hasRolledBefore",
      "outputs": [
        {
          "internalType": "bool",
          "name": "",
          "type": "bool"
        }
      ],
      "stateMutability": "view",
      "type": "function",
      "constant": true
    },
    {
      "inputs": [
        {
          "internalType": "uint8",
          "name": "_numberOfDie",
          "type": "uint8"
        },
        {
          "internalType": "uint8",
          "name": "_dieSize",
          "type": "uint8"
        },
        {
          "internalType": "int8",
          "name": "_adjustment",
          "type": "int8"
        },
        {
          "internalType": "int8",
          "name": "_result",
          "type": "int8"
        }
      ],
      "name": "hasRolled",
      "outputs": [],
      "stateMutability": "nonpayable",
      "type": "function"
    },
    {
      "inputs": [
        {
          "internalType": "uint8",
          "name": "_numberOfDie",
          "type": "uint8"
        },
        {
          "internalType": "uint8",
          "name": "_dieSize",
          "type": "uint8"
        },
        {
          "internalType": "int8",
          "name": "_adjustment",
          "type": "int8"
        }
      ],
      "name": "rollDice",
      "outputs": [
        {
          "internalType": "bytes32",
          "name": "requestId",
          "type": "bytes32"
        }
      ],
      "stateMutability": "nonpayable",
      "type": "function"
    },
    {
      "inputs": [
        {
          "internalType": "uint8",
          "name": "_numberOfDie",
          "type": "uint8"
        },
        {
          "internalType": "uint8",
          "name": "_dieSize",
          "type": "uint8"
        },
        {
          "internalType": "int8",
          "name": "_adjustment",
          "type": "int8"
        }
      ],
      "name": "rollDiceFast",
      "outputs": [
        {
          "internalType": "bytes32",
          "name": "requestId",
          "type": "bytes32"
        }
      ],
      "stateMutability": "nonpayable",
      "type": "function"
    },
    {
      "inputs": [
        {
          "internalType": "address",
          "name": "_address",
          "type": "address"
        }
      ],
      "name": "getUserRolls",
      "outputs": [
        {
          "components": [
            {
              "internalType": "address",
              "name": "rollee",
              "type": "address"
            },
            {
              "internalType": "uint256",
              "name": "timestamp",
              "type": "uint256"
            },
            {
              "internalType": "uint256",
              "name": "randomness",
              "type": "uint256"
            },
            {
              "internalType": "uint16",
              "name": "numberOfDie",
              "type": "uint16"
            },
            {
              "internalType": "uint16",
              "name": "dieSize",
              "type": "uint16"
            },
            {
              "internalType": "int16",
              "name": "adjustment",
              "type": "int16"
            },
            {
              "internalType": "int16",
              "name": "result",
              "type": "int16"
            },
            {
              "internalType": "uint8[]",
              "name": "rolledValues",
              "type": "uint8[]"
            }
          ],
          "internalType": "struct DiceRoller.DiceRollee[]",
          "name": "",
          "type": "tuple[]"
        }
      ],
      "stateMutability": "view",
      "type": "function",
      "constant": true
    },
    {
      "inputs": [
        {
          "internalType": "address",
          "name": "_address",
          "type": "address"
        }
      ],
      "name": "getUserRollsCount",
      "outputs": [
        {
          "internalType": "uint256",
          "name": "",
          "type": "uint256"
        }
      ],
      "stateMutability": "view",
      "type": "function",
      "constant": true
    },
    {
      "inputs": [],
      "name": "getAllUsers",
      "outputs": [
        {
          "internalType": "address[]",
          "name": "",
          "type": "address[]"
        }
      ],
      "stateMutability": "view",
      "type": "function",
      "constant": true
    },
    {
      "inputs": [],
      "name": "getAllUsersCount",
      "outputs": [
        {
          "internalType": "uint256",
          "name": "",
          "type": "uint256"
        }
      ],
      "stateMutability": "view",
      "type": "function",
      "constant": true
    },
    {
      "inputs": [
        {
          "internalType": "address",
          "name": "_roller",
          "type": "address"
        }
      ],
      "name": "getRoller",
      "outputs": [
        {
          "components": [
            {
              "internalType": "address",
              "name": "rollee",
              "type": "address"
            },
            {
              "internalType": "uint256",
              "name": "timestamp",
              "type": "uint256"
            },
            {
              "internalType": "uint256",
              "name": "randomness",
              "type": "uint256"
            },
            {
              "internalType": "uint16",
              "name": "numberOfDie",
              "type": "uint16"
            },
            {
              "internalType": "uint16",
              "name": "dieSize",
              "type": "uint16"
            },
            {
              "internalType": "int16",
              "name": "adjustment",
              "type": "int16"
            },
            {
              "internalType": "int16",
              "name": "result",
              "type": "int16"
            },
            {
              "internalType": "uint8[]",
              "name": "rolledValues",
              "type": "uint8[]"
            }
          ],
          "internalType": "struct DiceRoller.DiceRollee",
          "name": "",
          "type": "tuple"
        }
      ],
      "stateMutability": "view",
      "type": "function",
      "constant": true
    },
    {
      "inputs": [],
      "name": "getBalance",
      "outputs": [
        {
          "internalType": "uint256",
          "name": "",
          "type": "uint256"
        }
      ],
      "stateMutability": "view",
      "type": "function",
      "constant": true
    },
    {
      "inputs": [],
      "name": "getLINKBalance",
      "outputs": [
        {
          "internalType": "uint256",
          "name": "",
          "type": "uint256"
        }
      ],
      "stateMutability": "view",
      "type": "function",
      "constant": true
    }
  ],
  "bytecode": "0x60c06040523480156200001157600080fd5b5060405162002d8c38038062002d8c8339810160408190526200003491620000f3565b6001600160601b0319606085811b821660a05284901b166080526001805460ff191690556200006a620000643390565b6200007c565b600291909155600355506200013b9050565b600180546001600160a01b03838116610100818102610100600160a81b031985161790945560405193909204169182907f8be0079c531659141344cd1fd0a4f28419497f9722a3daafe3b4186f6b6457e090600090a35050565b80516001600160a01b0381168114620000ee57600080fd5b919050565b600080600080608085870312156200010a57600080fd5b6200011585620000d6565b93506200012560208601620000d6565b6040860151606090960151949790965092505050565b60805160601c60a05160601c612c026200018a6000396000818161118b0152611ce701526000818161096d01528181610d4601528181610f820152818161121e0152611cb80152612c026000f3fe60806040526004361061014b5760003560e01c8063715018a6116100b4578063ac428e7a1161006e578063e0a3f8c011610056578063e0a3f8c014610376578063e2842d79146103a3578063f2fde38b146103c557005b8063ac428e7a14610341578063bc4663581461035657005b80638456cb591161009c5780638456cb59146102d65780638da5cb5b146102eb57806394985ddd1461032157005b8063715018a61461028b578063796b0103146102a057005b80633f4ba83a1161010557806353066bab116100ed57806353066bab1461023e5780635c975abb1461026b578063710075091461028357005b80633f4ba83a1461021457806341c0e1b51461022957005b8063228bc26a11610133578063228bc26a146101bf578063285bf654146101df57806338abfc41146101ff57005b806312065fe01461015457806313dd43001461017657005b3661015257005b005b34801561016057600080fd5b50475b6040519081526020015b60405180910390f35b34801561018257600080fd5b506101af61019136600461211a565b6001600160a01b031660009081526005602052604090205460ff1690565b604051901515815260200161016d565b3480156101cb57600080fd5b506101636101da3660046121a7565b6103e5565b3480156101eb57600080fd5b506101636101fa3660046121a7565b6107de565b34801561020b57600080fd5b50600854610163565b34801561022057600080fd5b50610152610c88565b34801561023557600080fd5b50610152610d44565b34801561024a57600080fd5b5061025e61025936600461211a565b610e3d565b60405161016d9190612a69565b34801561027757600080fd5b5060015460ff166101af565b610152610f80565b34801561029757600080fd5b50610152611068565b3480156102ac57600080fd5b506101636102bb36600461211a565b6001600160a01b031660009081526007602052604090205490565b3480156102e257600080fd5b506101526110d2565b3480156102f757600080fd5b5060015461010090046001600160a01b03166040516001600160a01b03909116815260200161016d565b34801561032d57600080fd5b5061015261033c36600461216c565b611180565b34801561034d57600080fd5b50610163611206565b34801561036257600080fd5b506101526103713660046121ea565b6112a5565b34801561038257600080fd5b5061039661039136600461211a565b6115db565b60405161016d91906123bc565b3480156103af57600080fd5b506103b861172b565b60405161016d919061236f565b3480156103d157600080fd5b506101526103e036600461211a565b61178d565b60006103f360015460ff1690565b156104385760405162461bcd60e51b815260206004820152601060248201526f14185d5cd8589b194e881c185d5cd95960821b60448201526064015b60405180910390fd5b83600a60ff8216111561048d5760405162461bcd60e51b815260206004820152600e60248201527f546f6f206d616e79206469636521000000000000000000000000000000000000604482015260640161042f565b83606460ff821611156104ec5760405162461bcd60e51b815260206004820152602160248201527f3130302073696465642064696520697320746865206d617820616c6c6f7765646044820152601760f91b606482015260840161042f565b836000808260000b12156105085761050382612b6a565b61050a565b815b90506014600082900b13156105615760405162461bcd60e51b815260206004820152601860248201527f41646a7573746d656e7420697320746f6f206c617267652e0000000000000000604482015260640161042f565b600254604080516020810192909252429082015260600160408051601f19818403018152828252805160209182012060008181526004835283812080546001600160a01b03191633908117909155610100860185528552429285019290925291830181905260ff808c1660608501819052908b16608085015289820b60010b60a0850152602a60c0850152919750919060e082019067ffffffffffffffff81111561060e5761060e612bb6565b604051908082528060200260200182016040528015610637578160200160208202803683370190505b50905233600090815260066020908152604091829020835181546001600160a01b03919091166001600160a01b0319909116178155818401516001808301919091559284015160028201556060840151600382018054608087015160a088015160c0890151880b61ffff90811666010000000000000267ffff000000000000199290990b8116640100000000029190911667ffffffff0000000019928216620100000263ffffffff1990941691909516179190911716919091179390931790925560e0830151805193945084936107149260048501920190611fc4565b50503360009081526005602052604090205460ff16905061078c57336000818152600560205260408120805460ff191660019081179091556008805491820181559091527ff3f7a9fe364faab93b216da50a3214154f22a0a2b415b23a84c8169e8b636ee30180546001600160a01b03191690911790555b604051339087907f923de4fc4aece24a78a9e4ca3009c571a742f81ac2c004a229224b0fd1883bdd90600090a360006107c54442612af0565b90506107d18782611872565b5050505050509392505050565b60006107ec60015460ff1690565b1561082c5760405162461bcd60e51b815260206004820152601060248201526f14185d5cd8589b194e881c185d5cd95960821b604482015260640161042f565b83600a60ff821611156108815760405162461bcd60e51b815260206004820152600e60248201527f546f6f206d616e79206469636521000000000000000000000000000000000000604482015260640161042f565b83606460ff821611156108e05760405162461bcd60e51b815260206004820152602160248201527f3130302073696465642064696520697320746865206d617820616c6c6f7765646044820152601760f91b606482015260840161042f565b836000808260000b12156108fc576108f782612b6a565b6108fe565b815b90506014600082900b13156109555760405162461bcd60e51b815260206004820152601860248201527f41646a7573746d656e7420697320746f6f206c617267652e0000000000000000604482015260640161042f565b6003546040516370a0823160e01b81523060048201527f00000000000000000000000000000000000000000000000000000000000000006001600160a01b0316906370a082319060240160206040518083038186803b1580156109b757600080fd5b505afa1580156109cb573d6000803e3d6000fd5b505050506040513d601f19601f820116820180604052508101906109ef919061218e565b1015610a3d5760405162461bcd60e51b815260206004820152601a60248201527f4e6f7420656e6f756768204c494e4b20746f2070617920666565000000000000604482015260640161042f565b610a4b600254600354611cb4565b600081815260046020908152604080832080546001600160a01b031916339081179091558151610100810183529081524292810192909252810182905260ff808c1660608301819052908b16608083015289830b60010b60a0830152602a60c0830152929750909160e082019067ffffffffffffffff811115610ad057610ad0612bb6565b604051908082528060200260200182016040528015610af9578160200160208202803683370190505b5090523360009081526005602052604090205490915060ff16610b7357336000818152600560205260408120805460ff191660019081179091556008805491820181559091527ff3f7a9fe364faab93b216da50a3214154f22a0a2b415b23a84c8169e8b636ee30180546001600160a01b03191690911790555b33600090815260066020908152604091829020835181546001600160a01b03919091166001600160a01b0319909116178155818401516001808301919091559284015160028201556060840151600382018054608087015160a088015160c0890151880b61ffff90811666010000000000000267ffff000000000000199290990b8116640100000000029190911667ffffffff0000000019928216620100000263ffffffff1990941691909516179190911716919091179390931790925560e08301518051849392610c4c926004850192910190611fc4565b505060405133915087907f923de4fc4aece24a78a9e4ca3009c571a742f81ac2c004a229224b0fd1883bdd90600090a350505050509392505050565b6001546001600160a01b03610100909104163314610ce85760405162461bcd60e51b815260206004820181905260248201527f4f776e61626c653a2063616c6c6572206973206e6f7420746865206f776e6572604482015260640161042f565b60015460ff16610d3a5760405162461bcd60e51b815260206004820152601460248201527f5061757361626c653a206e6f7420706175736564000000000000000000000000604482015260640161042f565b610d42611e3e565b565b7f00000000000000000000000000000000000000000000000000000000000000006001600160a01b031663a9059cbb610d8b6001546001600160a01b036101009091041690565b610d93611206565b6040517fffffffff0000000000000000000000000000000000000000000000000000000060e085901b1681526001600160a01b0390921660048301526024820152604401602060405180830381600087803b158015610df157600080fd5b505af1158015610e05573d6000803e3d6000fd5b505050506040513d601f19601f82011682018060405250810190610e29919061214a565b5060015461010090046001600160a01b0316ff5b604080516101008101825260008082526020820181905291810182905260608082018390526080820183905260a0820183905260c082019290925260e08101919091526001600160a01b038083166000908152600660209081526040918290208251610100810184528154909416845260018082015485840152600282015485850152600382015461ffff80821660608801526201000082041660808701526401000000008104820b820b820b60a087015266010000000000009004810b810b900b60c0850152600481018054845181850281018501909552808552919360e0860193909290830182828015610f7057602002820191906000526020600020906000905b825461010083900a900460ff16815260206001928301818104948501949093039092029101808411610f415790505b5050505050815250509050919050565b7f00000000000000000000000000000000000000000000000000000000000000006001600160a01b031663a9059cbb610fc76001546001600160a01b036101009091041690565b610fcf611206565b6040517fffffffff0000000000000000000000000000000000000000000000000000000060e085901b1681526001600160a01b0390921660048301526024820152604401602060405180830381600087803b15801561102d57600080fd5b505af1158015611041573d6000803e3d6000fd5b505050506040513d601f19601f82011682018060405250810190611065919061214a565b50565b6001546001600160a01b036101009091041633146110c85760405162461bcd60e51b815260206004820181905260248201527f4f776e61626c653a2063616c6c6572206973206e6f7420746865206f776e6572604482015260640161042f565b610d426000611eda565b6001546001600160a01b036101009091041633146111325760405162461bcd60e51b815260206004820181905260248201527f4f776e61626c653a2063616c6c6572206973206e6f7420746865206f776e6572604482015260640161042f565b60015460ff16156111785760405162461bcd60e51b815260206004820152601060248201526f14185d5cd8589b194e881c185d5cd95960821b604482015260640161042f565b610d42611f4b565b336001600160a01b037f000000000000000000000000000000000000000000000000000000000000000016146111f85760405162461bcd60e51b815260206004820152601f60248201527f4f6e6c7920565246436f6f7264696e61746f722063616e2066756c66696c6c00604482015260640161042f565b6112028282611872565b5050565b6040516370a0823160e01b81523060048201526000907f00000000000000000000000000000000000000000000000000000000000000006001600160a01b0316906370a082319060240160206040518083038186803b15801561126857600080fd5b505afa15801561127c573d6000803e3d6000fd5b505050506040513d601f19601f820116820180604052508101906112a0919061218e565b905090565b60015460ff16156112eb5760405162461bcd60e51b815260206004820152601060248201526f14185d5cd8589b194e881c185d5cd95960821b604482015260640161042f565b83600a60ff821611156113405760405162461bcd60e51b815260206004820152600e60248201527f546f6f206d616e79206469636521000000000000000000000000000000000000604482015260640161042f565b83606460ff8216111561139f5760405162461bcd60e51b815260206004820152602160248201527f3130302073696465642064696520697320746865206d617820616c6c6f7765646044820152601760f91b606482015260840161042f565b836000808260000b12156113bb576113b682612b6a565b6113bd565b815b90506014600082900b13156114145760405162461bcd60e51b815260206004820152601860248201527f41646a7573746d656e7420697320746f6f206c617267652e0000000000000000604482015260640161042f565b604080516101008101825233815242602080830191909152600082840181905260ff8c811660608501528b16608084015289810b600190810b60a085015289820b900b60c0840152835181815291820190935260e082015233600090815260076020908152604080832080546001818101835591855293839020855160059095020180546001600160a01b03959095166001600160a01b031990951694909417845582850151848201559084015160028401556060840151600384018054608087015160a088015160c0890151860b61ffff90811666010000000000000267ffff000000000000199290970b8116640100000000029190911667ffffffff0000000019928216620100000263ffffffff19909416919095161791909117169190911791909117905560e0830151805193945084936115589260048501920190611fc4565b50503360009081526005602052604090205460ff1690506115d057336000818152600560205260408120805460ff191660019081179091556008805491820181559091527ff3f7a9fe364faab93b216da50a3214154f22a0a2b415b23a84c8169e8b636ee30180546001600160a01b03191690911790555b505050505050505050565b6001600160a01b0381166000908152600760209081526040808320805482518185028101850190935280835260609492939192909184015b8282101561172057600084815260209081902060408051610100810182526005860290920180546001600160a01b0316835260018082015484860152600282015484840152600382015461ffff80821660608701526201000082041660808601526401000000008104820b820b820b60a086015266010000000000009004810b810b900b60c08401526004810180548351818702810187019094528084529394919360e08601939283018282801561170857602002820191906000526020600020906000905b825461010083900a900460ff168152602060019283018181049485019490930390920291018084116116d95790505b50505050508152505081526020019060010190611613565b505050509050919050565b6060600880548060200260200160405190810160405280929190818152602001828054801561178357602002820191906000526020600020905b81546001600160a01b03168152600190910190602001808311611765575b5050505050905090565b6001546001600160a01b036101009091041633146117ed5760405162461bcd60e51b815260206004820181905260248201527f4f776e61626c653a2063616c6c6572206973206e6f7420746865206f776e6572604482015260640161042f565b6001600160a01b0381166118695760405162461bcd60e51b815260206004820152602660248201527f4f776e61626c653a206e6577206f776e657220697320746865207a65726f206160448201527f6464726573730000000000000000000000000000000000000000000000000000606482015260840161042f565b61106581611eda565b6000828152600460208181526040808420546001600160a01b0316845260069091528220916118a39183019061206a565b600281018290556000805b600383015461ffff16821015611a02576000846118cc600285612b56565b61193f5783156118ee576118e1846064612b1c565b6118eb9087612b08565b90505b600385015462010000900461ffff168061190a5761190a612ba0565b7faaaaaaaaaaaaaaaaaaaaaaaaaaaaaaaaaaaaaaaaaaaaaaaaaaaaaaaaaaaaaaaa8208611938906001612af0565b91506119aa565b831561195d57611950846063612b1c565b61195a9087612b08565b90505b600385015462010000900461ffff168061197957611979612ba0565b7f555555555555555555555555555555555555555555555555555555555555555582096119a7906001612af0565b91505b6119b48284612a7c565b6004860180546001810182556000918252602091829020918104909101805460ff808716601f9094166101000a9384029302191691909117905592506119f984612b3b565b935050506118ae565b6003830154611a20906401000000009004600190810b900b82612a7c565b60038085018054600184810b61ffff908116660100000000000090810267ffff0000000000001994851617855560008c8152600460208181526040808420546001600160a01b03908116808652600690935293208d5481546001600160a01b0319169416939093178355858d0154838701556002808e0154908401558754988301805461ffff1981169a87169a8b1782558954620100009081900488160263ffffffff19909116909a1799909917808a55885464010000000090819004880b880b87160265ffff0000000019821681178b559854859004870b90960b9094169092029590941667ffffffff000000001990931692909217939093179093558287018054949550919387939192611b389284019161208f565b5050506001600160a01b038082166000908152600760209081526040822080546001818101835591845291909220875460059092020180546001600160a01b0319169190931617825580860154828201556002808701549083015560038087018054918401805461ffff19811661ffff94851690811783558354620100009081900486160263ffffffff199092161717808255825464010000000090819004860b860b85160265ffff00000000198216811783559254660100000000000090819004860b90950b90931690930267ffff0000000000001990911667ffffffff00000000199092169190911717905560048086018054879392611c3d929084019161208f565b5050845460038601546040516001600160a01b03909216925088917f167c7134395929c5ba79d9ad603bfeb53d5fdd7d6f58e21385e661951877763f91611ca49160048a01916401000000008104600190810b926601000000000000909204900b9061241e565b60405180910390a3505050505050565b60007f00000000000000000000000000000000000000000000000000000000000000006001600160a01b0316634000aea07f000000000000000000000000000000000000000000000000000000000000000084866000604051602001611d24929190918252602082015260400190565b6040516020818303038152906040526040518463ffffffff1660e01b8152600401611d5193929190612302565b602060405180830381600087803b158015611d6b57600080fd5b505af1158015611d7f573d6000803e3d6000fd5b505050506040513d601f19601f82011682018060405250810190611da3919061214a565b5060008381526020818152604080832054815180840188905280830185905230606082015260808082018390528351808303909101815260a090910190925281519183019190912086845292909152611dfd906001612af0565b60008581526020818152604091829020929092558051808301879052808201849052815180820383018152606090910190915280519101205b949350505050565b60015460ff16611e905760405162461bcd60e51b815260206004820152601460248201527f5061757361626c653a206e6f7420706175736564000000000000000000000000604482015260640161042f565b6001805460ff191690557f5db9ee0a495bf2e6ff9c91a7834c1ba4fdd244a5e8aa4e537bd38aeae4b073aa335b6040516001600160a01b03909116815260200160405180910390a1565b600180546001600160a01b038381166101008181027fffffffffffffffffffffff0000000000000000000000000000000000000000ff85161790945560405193909204169182907f8be0079c531659141344cd1fd0a4f28419497f9722a3daafe3b4186f6b6457e090600090a35050565b60015460ff1615611f915760405162461bcd60e51b815260206004820152601060248201526f14185d5cd8589b194e881c185d5cd95960821b604482015260640161042f565b6001805460ff1916811790557f62e78cea01bee320cd4e420270b5ea74000d11b0c9f74754ebdbfc544b05a25833611ebd565b82805482825590600052602060002090601f0160209004810192821561205a5791602002820160005b8382111561202b57835183826101000a81548160ff021916908360ff1602179055509260200192600101602081600001049283019260010302611fed565b80156120585782816101000a81549060ff021916905560010160208160000104928301926001030261202b565b505b506120669291506120dd565b5090565b50805460008255601f01602090049060005260206000209081019061106591906120dd565b82805482825590600052602060002090601f0160209004810192821561205a57600052602060002091601f016020900482015b8281111561205a5782548255916001019190600101906120c2565b5b8082111561206657600081556001016120de565b8035600081900b811461210457600080fd5b919050565b803560ff8116811461210457600080fd5b60006020828403121561212c57600080fd5b81356001600160a01b038116811461214357600080fd5b9392505050565b60006020828403121561215c57600080fd5b8151801515811461214357600080fd5b6000806040838503121561217f57600080fd5b50508035926020909101359150565b6000602082840312156121a057600080fd5b5051919050565b6000806000606084860312156121bc57600080fd5b6121c584612109565b92506121d360208501612109565b91506121e1604085016120f2565b90509250925092565b6000806000806080858703121561220057600080fd5b61220985612109565b935061221760208601612109565b9250612225604086016120f2565b9150612233606086016120f2565b905092959194509250565b600081518084526020808501945080840160005b8381101561227157815160ff1687529582019590820190600101612252565b509495945050505050565b60006101006001600160a01b0383511684526020830151602085015260408301516040850152606083015161ffff8082166060870152806080860151166080870152505060a083015160010b60a085015260c08301516122e160c086018260010b9052565b5060e08301518160e08601526122f98286018261223e565b95945050505050565b6001600160a01b038416815260006020848184015260606040840152835180606085015260005b8181101561234557858101830151858201608001528201612329565b81811115612357576000608083870101525b50601f01601f19169290920160800195945050505050565b6020808252825182820181905260009190848201906040850190845b818110156123b05783516001600160a01b03168352928401929184019160010161238b565b50909695505050505050565b6000602080830181845280855180835260408601915060408160051b870101925083870160005b8281101561241157603f198886030184526123ff85835161227c565b945092850192908501906001016123e3565b5092979650505050505050565b60006060808301818452808754612439818490815260200190565b60008a81526020812094509092505b81601f820110156126cc57835460ff80821685526020612471818701838560081c1660ff169052565b6040612486818801848660101c1660ff169052565b612499898801848660181c1660ff169052565b60806124ad8189018587861c1660ff169052565b60a092506124c4838901858760281c1660ff169052565b60c06124d9818a01868860301c1660ff169052565b60e06124ee818b01878960381c1660ff169052565b60ff87851c8716166101008b01526125116101208b01878960481c1660ff169052565b6125266101408b01878960501c1660ff169052565b61253b6101608b01878960581c1660ff169052565b60ff878d1c8716166101808b015261255e6101a08b01878960681c1660ff169052565b6125736101c08b01878960701c1660ff169052565b6125886101e08b01878960781c1660ff169052565b60ff87841c8716166102008b01526125ab6102208b01878960881c1660ff169052565b6125c06102408b01878960901c1660ff169052565b6125d56102608b01878960981c1660ff169052565b60ff87861c8716166102808b01526125f86102a08b01878960a81c1660ff169052565b61260d6102c08b01878960b01c1660ff169052565b6126226102e08b01878960b81c1660ff169052565b60ff87831c8716166103008b01526126456103208b01878960c81c1660ff169052565b61265a6103408b01878960d01c1660ff169052565b61266f6103608b01878960d81c1660ff169052565b60ff87821c8716166103808b015250505050506126976103a08601828460e81c1660ff169052565b6126ac6103c08601828460f01c1660ff169052565b5060f81c6103e08401526001939093019261040090920191602001612448565b925492818110156126e75760ff841683526020909201916001015b818110156127035760ff600885901c1683526020909201916001015b8181101561271f5760ff601085901c1683526020909201916001015b8181101561273b5760ff601885901c1683526020909201916001015b8181101561275857602084901c60ff168352602092909201916001015b818110156127745760ff602885901c1683526020909201916001015b818110156127905760ff603085901c1683526020909201916001015b818110156127ac5760ff603885901c1683526020909201916001015b818110156127c85760ff604085901c1683526020909201916001015b818110156127e45760ff604885901c1683526020909201916001015b818110156128005760ff605085901c1683526020909201916001015b8181101561281c5760ff605885901c1683526020909201916001015b818110156128365760ff84861c1683526020909201916001015b818110156128525760ff606885901c1683526020909201916001015b8181101561286e5760ff607085901c1683526020909201916001015b8181101561288a5760ff607885901c1683526020909201916001015b818110156128a65760ff608085901c1683526020909201916001015b818110156128c25760ff608885901c1683526020909201916001015b818110156128de5760ff609085901c1683526020909201916001015b818110156128fa5760ff609885901c1683526020909201916001015b818110156129165760ff60a085901c1683526020909201916001015b818110156129325760ff60a885901c1683526020909201916001015b8181101561294e5760ff60b085901c1683526020909201916001015b8181101561296a5760ff60b885901c1683526020909201916001015b818110156129865760ff60c085901c1683526020909201916001015b818110156129a25760ff60c885901c1683526020909201916001015b818110156129be5760ff60d085901c1683526020909201916001015b818110156129da5760ff60d885901c1683526020909201916001015b818110156129f65760ff60e085901c1683526020909201916001015b81811015612a125760ff60e885901c1683526020909201916001015b81811015612a2e5760ff60f085901c1683526020909201916001015b81811015612a445760f884901c83526020830192505b5050600187900b60208601529250612a5a915050565b611e36604083018460010b9052565b602081526000612143602083018461227c565b6000808212827f7fffffffffffffffffffffffffffffffffffffffffffffffffffffffffffffff03841381151615612ab657612ab6612b8a565b827f8000000000000000000000000000000000000000000000000000000000000000038412811615612aea57612aea612b8a565b50500190565b60008219821115612b0357612b03612b8a565b500190565b600082612b1757612b17612ba0565b500490565b6000816000190483118215151615612b3657612b36612b8a565b500290565b6000600019821415612b4f57612b4f612b8a565b5060010190565b600082612b6557612b65612ba0565b500690565b600081810b607f19811415612b8157612b81612b8a565b60000392915050565b634e487b7160e01b600052601160045260246000fd5b634e487b7160e01b600052601260045260246000fd5b634e487b7160e01b600052604160045260246000fdfea2646970667358221220141268d70a8c82a5993a7d2f4aaf061fa3e68991338acd4f514c3e57b9ad61ee64736f6c63430008060033",
  "immutableReferences": {
    "73": [
      {
        "length": 32,
        "start": 2413
      },
      {
        "length": 32,
        "start": 3398
      },
      {
        "length": 32,
        "start": 3970
      },
      {
        "length": 32,
        "start": 4638
      },
      {
        "length": 32,
        "start": 7352
      }
    ],
    "75": [
      {
        "length": 32,
        "start": 4491
      },
      {
        "length": 32,
        "start": 7399
      }
    ]
  },
  "source": "// SPDX-License-Identifier: MIT\n// pragma solidity ^0.8.4;\n\n// pragma solidity ^0.6.6;\n// pragma experimental ABIEncoderV2;\npragma solidity >=0.6.6 <0.9.0;\n\nimport \"@openzeppelin/contracts/access/Ownable.sol\";\nimport \"@chainlink/contracts/src/v0.8/VRFConsumerBase.sol\";\nimport \"@openzeppelin/contracts/security/Pausable.sol\";\n\n/*\n    https://docs.chain.link/docs/vrf-contracts/\n    Testnet LINK are available from https://faucets.chain.link/kovan\n    Kovan deploy values:\n    const contract = await contractFactory.deploy(\n        0xdD3782915140c8f3b190B5D67eAc6dc5760C46E9, // VRFCOORDINATOR\n        0xa36085F69e2889c224210F603D836748e7dC0088, // LINK\n        0x6c3699283bda56ad74f6b855546325b68d482e983852a7a82979cc4807b641f4,  // KEYHASH\n        100000000000000000 // FEE = 0.1 LINK\n    ); \n*/\ncontract DiceRoller is VRFConsumerBase, Pausable, Ownable {\n    /// Using these values to manipulate the random value on each die roll.\n    /// The goal is an attempt to further randomize randomness for each die rolled.\n    /**\n    * 77194726158210796949047323339125271902179989777093709359638389338608753093290\n    * 0xaaaaaaaaaaaaaaaaaaaaaaaaaaaaaaaaaaaaaaaaaaaaaaaaaaaaaaaaaaaaaaaa\n    * 10101010101010101010101010101...\n    */\n    uint constant MODIFIER_VALUE_1 = 77194726158210796949047323339125271902179989777093709359638389338608753093290;\n\n    /**\n    * 38597363079105398474523661669562635951089994888546854679819194669304376546645\n    * 0x55555555555555555555555555555555555555555555555555555555555555555\n    * 0101010101...\n    */\n    uint constant MODIFIER_VALUE_2 = 38597363079105398474523661669562635951089994888546854679819194669304376546645;\n    uint8 constant MAX_DICE_ALLOWED = 10;\n    uint8 constant MAX_DIE_SIZE_ALLOWED = 100;\n    int8 constant MAX_ADJUSTMENT_ALLOWED = 20;\n    int8 private constant ROLL_IN_PROGRESS = 42;\n\n    bytes32 private chainLinkKeyHash;\n    uint256 private chainlinkVRFFee;\n\n    struct DiceRollee {\n        address rollee;\n        uint256 timestamp; // When the die were rolled\n        uint256 randomness; // Stored to help verify/debug results\n        uint16 numberOfDie; // 1 = roll once, 4 = roll four die\n        uint16 dieSize; // 6 = 6 sided die, 20 = 20 sided die\n        int16 adjustment; // Can be a positive or negative value\n        int16 result; // Result of all die rolls and adjustment. Can be negative because of a negative adjustment.\n        // Max value can be 1000 (10 * 100 sided die rolled)\n        uint8[] rolledValues; // array of individual rolls. These can only be positive.\n    }\n\n    /**\n    * Mapping between the requestID (returned when a request is made), \n    * and the address of the roller. This is so the contract can keep track of \n    * who to assign the result to when it comes back.\n    */\n    mapping(bytes32 => address) private rollersRandomRequest;\n\n    /// Used to indicate if an address has ever rolled.\n    mapping(address => bool) private rollers;\n\n    /// stores the roller and the state of their current die roll.\n    mapping(address => DiceRollee) private currentRoll;\n\n    /// users can have multiple die rolls\n    mapping (address => DiceRollee[]) rollerHistory;\n\n    /// keep list of user addresses for fun/stats\n    /// can iterate over them later.\n    address[] internal rollerAddresses;\n\n    /// Emit this when either of the rollDice functions are called.\n    /// Used to notify soem front end that we are waiting for response from\n    /// chainlink VRF.\n    event DiceRolled(bytes32 indexed requestId, address indexed roller);\n\n    /// Emitted when fulfillRandomness is called by Chainlink VRF to provide the random value.\n    event DiceLanded(\n        bytes32 indexed requestId, \n        address indexed roller, \n        uint8[] rolledvalues, \n        int16 adjustment, \n        int16 result\n        );\n\n    modifier validateNumberOfDie(uint8 _numberOfDie) {\n        require(_numberOfDie <= MAX_DICE_ALLOWED, \"Too many dice!\");\n        _;\n    }\n\n    modifier validateDieSize(uint8 _dieSize) {\n        require(_dieSize <= MAX_DIE_SIZE_ALLOWED, \"100 sided die is the max allowed.\");\n        _;\n    }\n\n    modifier validateAdjustment(int8 _adjustment) {\n        int8 tempAdjustment = _adjustment >= 0 ? _adjustment : -_adjustment; // convert to positive value and test that.\n        require(tempAdjustment <= MAX_ADJUSTMENT_ALLOWED, \"Adjustment is too large.\");\n        _;\n    }\n\n    constructor(address _vrfCoordinator, address _link, bytes32 _keyHash, uint256 _fee)\n        VRFConsumerBase(_vrfCoordinator, _link)\n    {\n        chainLinkKeyHash = _keyHash;\n        chainlinkVRFFee = _fee;\n    }\n\n    fallback() external payable {}\n    receive() external payable {}\n\n    function refundTokens() public payable {\n        LINK.transfer(payable(owner()), getLINKBalance());\n    }\n\n    /**\n     * @dev Triggers stopped state.\n     *\n     * Requirements:\n     *\n     * - The contract must not be paused.\n     */\n    function pause() external virtual onlyOwner whenNotPaused {\n       _pause();\n    }\n\n    /**\n     * @dev Returns to normal state.\n     *\n     * Requirements:\n     *\n     * - The contract must be paused.\n     */\n    function unpause() external virtual onlyOwner whenPaused {\n        _unpause();\n    }\n\n    /**\n    * When the contract is killed, make sure to return all unspent tokens back to my wallet.\n    */\n    function kill() external {\n        LINK.transfer(owner(), getLINKBalance());\n        selfdestruct(payable(owner()));\n    }\n\n    /// Used to perform specific logic based on if user has rolled previoulsy or not.\n    function hasRolledBefore(address _member) public view returns(bool) {\n        return (rollers[_member]);\n    }\n\n    /**\n    * Called by the front end if user wants to use the front end to \n    * generate the random values. We just use this to store the result of the roll on the blockchain.\n    *\n    * @param _numberOfDie how many dice are rolled\n    * @param _dieSize the type of die rolled (4 = 4 sided, 6 = six sided, etc.)\n    * @param _adjustment the modifier to add after all die have been rolled. Can be negative.\n    * @param _result can be negative if you have a low enough dice roll and larger negative adjustment.\n    * Example, rolled 2 4 sided die with -4 adjustment.\n    */\n    function hasRolled(uint8 _numberOfDie, uint8 _dieSize, int8 _adjustment, int8 _result) \n        public \n        whenNotPaused\n        validateNumberOfDie(_numberOfDie)\n        validateDieSize(_dieSize)\n        validateAdjustment(_adjustment)\n    {\n        DiceRollee memory diceRollee = DiceRollee({\n                rollee: msg.sender, \n                timestamp: block.timestamp,\n                randomness: 0, \n                numberOfDie: _numberOfDie, \n                dieSize: _dieSize, \n                adjustment: _adjustment, \n                result: _result, \n                rolledValues: new uint8[](0)\n        });\n\n        rollerHistory[msg.sender].push(diceRollee);\n\n        /// Only add roller to this list once.\n        if (! hasRolledBefore(msg.sender)) {\n            rollers[msg.sender] = true;\n            rollerAddresses.push(msg.sender);\n        }\n    }\n    \n\n    /**\n     * @notice Requests randomness from Chainlink.\n     *\n     * @param _numberOfDie how many dice are rolled\n     * @param _dieSize the type of die rolled (4 = 4 sided, 6 = six sided, etc.)\n     * @param _adjustment the modifier to add after all die have been rolled. Can be negative.\n     */\n    function rollDice(\n        uint8 _numberOfDie, \n        uint8 _dieSize, \n        int8 _adjustment) \n        public \n        whenNotPaused\n        validateNumberOfDie(_numberOfDie)\n        validateDieSize(_dieSize)\n        validateAdjustment(_adjustment)\n        returns (bytes32 requestId) \n    {\n        /// checking LINK balance to make sure we can call the Chainlink VRF.\n        require(LINK.balanceOf(address(this)) >= chainlinkVRFFee, \"Not enough LINK to pay fee\");\n\n        /// Call to Chainlink VRF for randomness\n        requestId = requestRandomness(chainLinkKeyHash, chainlinkVRFFee);\n        // requestId = keccak256(abi.encodePacked(chainLinkKeyHash, block.timestamp));\n        rollersRandomRequest[requestId] = msg.sender;\n\n        DiceRollee memory diceRollee = DiceRollee({\n                rollee: msg.sender, \n                timestamp: block.timestamp,\n                randomness: 0, \n                numberOfDie: _numberOfDie, \n                dieSize: _dieSize, \n                adjustment: _adjustment, \n                result: ROLL_IN_PROGRESS, \n                rolledValues: new uint8[](_numberOfDie)\n        });\n\n        /// Only add roller to this list once.\n        if (! hasRolledBefore(msg.sender)) {\n            rollers[msg.sender] = true;\n            rollerAddresses.push(msg.sender);\n        }\n\n        currentRoll[msg.sender] = diceRollee;\n        emit DiceRolled(requestId, msg.sender);\n    }\n\n\n    /**\n     * @notice Uses psuedo randomness based on blockchain data. This function is used to \n     * compare speed of getting some sort of randomness straight from the blockchain \n     * instead of waiting for Chainlink VRF to return a random value.\n     *\n     * @param _numberOfDie how many dice are rolled\n     * @param _dieSize the type of die rolled (4 = 4 sided, 6 = six sided, etc.)\n     * @param _adjustment the modifier to add after all die have been rolled. Can be negative.\n     */\n    function rollDiceFast(\n        uint8 _numberOfDie, \n        uint8 _dieSize, \n        int8 _adjustment) \n        public \n        whenNotPaused\n        validateNumberOfDie(_numberOfDie)\n        validateDieSize(_dieSize)\n        validateAdjustment(_adjustment)\n        returns (bytes32 requestId) \n    {\n        /// Simple hacky way to generate a requestId.\n        requestId = keccak256(abi.encodePacked(chainLinkKeyHash, block.timestamp));\n        rollersRandomRequest[requestId] = msg.sender;\n\n        DiceRollee memory diceRollee = DiceRollee({\n                rollee: msg.sender, \n                timestamp: block.timestamp,\n                randomness: 0, \n                numberOfDie: _numberOfDie, \n                dieSize: _dieSize, \n                adjustment: _adjustment, \n                result: ROLL_IN_PROGRESS, \n                rolledValues: new uint8[](_numberOfDie)\n        });\n\n        currentRoll[msg.sender] = diceRollee;\n\n        /// Only add roller to this list once.\n        if (! hasRolledBefore(msg.sender)) {\n            rollers[msg.sender] = true;\n            rollerAddresses.push(msg.sender);\n        }\n\n        emit DiceRolled(requestId, msg.sender);\n        uint256 randomness = (block.timestamp + block.difficulty);\n        fulfillRandomness(requestId, randomness);\n    }\n\n    /// returns historic data for specific address/user\n    function getUserRolls(address _address) public view returns (DiceRollee[] memory) {\n        return rollerHistory[_address];\n    }\n\n    /// How many times someone rolled.\n    function getUserRollsCount(address _address) public view returns (uint) {\n        return rollerHistory[_address].length;\n    }\n\n    /// only allow the contract owner (me) to access this.\n    function getAllUsers() public view returns (address[] memory) {\n        return rollerAddresses;\n    }\n\n    function getAllUsersCount() public view returns (uint) {\n        return rollerAddresses.length;\n    }\n\n    function getRoller(address _roller) view public returns (DiceRollee memory) {\n        return currentRoll[_roller];\n    }\n\n    function getBalance() view public returns (uint256) {\n        return address(this).balance;\n    }\n\n    // https://medium.com/@blockchain101/calling-the-function-of-another-contract-in-solidity-f9edfa921f4c\n    // https://medium.com/coinmonks/get-token-balance-for-any-eth-address-by-using-smart-contracts-in-js-b603fef2061c\n    // returns the amount of LINK tokens this contract has.\n    function getLINKBalance() view public returns (uint256) {\n       return LINK.balanceOf(address(this));\n    }\n\n    /**\n     * @notice Callback function used by VRF Coordinator to return the random number\n     * to this contract.\n     *\n     * This is the core function where we try to generate random values from a single\n     * random value provided. For each die to roll, we use the passed inrandom value\n     * perform some calculation on it to generate a new \"random\" value that we then\n     * perform the mod on. Goal is if you are rolling x 10 sided die, each roll \n     * generates a different value.\n     *\n     * @param _requestId bytes32\n     * @param _randomness The random result returned by the oracle\n     */\n    function fulfillRandomness(bytes32 _requestId, uint256 _randomness) internal override{\n        /// Associate the random value with the roller based on requestId.\n        DiceRollee storage rollee = currentRoll[rollersRandomRequest[_requestId]];\n        delete rollee.rolledValues;\n        rollee.randomness = _randomness;\n\n        uint counter; /// Tracks how many die have been rolled.\n        int calculatedValue;\n\n        /// iterate over each die to be rolled and calc the value based on a sort of randomness.\n        while (counter < rollee.numberOfDie) {\n            uint curValue;\n            uint v = _randomness;\n            \n            /**\n             *   This code attempts to force enough chnge in the passed random value\n             *   so that can look like it generates multiple random numbers.\n            */\n            if (counter % 2 == 0) {\n                if (counter > 0){\n                    v = _randomness / (100*counter);\n                }\n                /// Add 1 to prevent returning 0\n                curValue = addmod(v, MODIFIER_VALUE_1, rollee.dieSize) + 1;\n            } else {\n                if (counter > 0) {\n                    v = _randomness / (99*counter);\n                }\n                /// Add 1 to prevent returning 0\n                curValue = mulmod(v, MODIFIER_VALUE_2, rollee.dieSize) + 1;\n            }\n\n            calculatedValue += int(curValue);\n            rollee.rolledValues.push( uint8(curValue) );\n            ++counter;\n        }// while\n\n        calculatedValue += rollee.adjustment;\n        rollee.result = int16(calculatedValue);\n        address rollerAdress = rollersRandomRequest[_requestId];\n        currentRoll[rollerAdress] = rollee;\n        rollerHistory[rollerAdress].push(rollee);\n        emit DiceLanded(_requestId, rollee.rollee, rollee.rolledValues, rollee.adjustment, rollee.result);\n    }\n\n\n    function isOwner() internal view virtual returns (bool) {\n        return msg.sender == owner();\n    }\n}\n",
  "sourcePath": "/home/mk/projects/web_3.0/dicey_attempts/dicey_truffle_start_kit/contracts/DiceRoller.sol",
  "compiler": {
    "name": "solc",
    "version": "0.8.6+commit.11564f7e.Emscripten.clang"
  },
  "schemaVersion": "3.4.4",
  "updatedAt": "2022-01-15T17:49:06.977Z",
  "networkType": "ethereum",
  "devdoc": {
    "kind": "dev",
    "methods": {
      "hasRolled(uint8,uint8,int8,int8)": {
        "params": {
          "_adjustment": "the modifier to add after all die have been rolled. Can be negative.",
          "_dieSize": "the type of die rolled (4 = 4 sided, 6 = six sided, etc.)",
          "_numberOfDie": "how many dice are rolled",
          "_result": "can be negative if you have a low enough dice roll and larger negative adjustment. Example, rolled 2 4 sided die with -4 adjustment."
        }
      },
      "owner()": {
        "details": "Returns the address of the current owner."
      },
      "pause()": {
        "details": "Triggers stopped state. Requirements: - The contract must not be paused."
      },
      "paused()": {
        "details": "Returns true if the contract is paused, and false otherwise."
      },
      "renounceOwnership()": {
        "details": "Leaves the contract without owner. It will not be possible to call `onlyOwner` functions anymore. Can only be called by the current owner. NOTE: Renouncing ownership will leave the contract without an owner, thereby removing any functionality that is only available to the owner."
      },
      "rollDice(uint8,uint8,int8)": {
        "params": {
          "_adjustment": "the modifier to add after all die have been rolled. Can be negative.",
          "_dieSize": "the type of die rolled (4 = 4 sided, 6 = six sided, etc.)",
          "_numberOfDie": "how many dice are rolled"
        }
      },
      "rollDiceFast(uint8,uint8,int8)": {
        "params": {
          "_adjustment": "the modifier to add after all die have been rolled. Can be negative.",
          "_dieSize": "the type of die rolled (4 = 4 sided, 6 = six sided, etc.)",
          "_numberOfDie": "how many dice are rolled"
        }
      },
      "transferOwnership(address)": {
        "details": "Transfers ownership of the contract to a new account (`newOwner`). Can only be called by the current owner."
      },
      "unpause()": {
        "details": "Returns to normal state. Requirements: - The contract must be paused."
      }
    },
    "version": 1
  },
  "userdoc": {
    "events": {
      "DiceLanded(bytes32,address,uint8[],int16,int16)": {
        "notice": "Emitted when fulfillRandomness is called by Chainlink VRF to provide the random value."
      },
      "DiceRolled(bytes32,address)": {
        "notice": "Emit this when either of the rollDice functions are called. Used to notify soem front end that we are waiting for response from chainlink VRF."
      }
    },
    "kind": "user",
    "methods": {
      "getAllUsers()": {
        "notice": "only allow the contract owner (me) to access this."
      },
      "getUserRolls(address)": {
        "notice": "returns historic data for specific address/user"
      },
      "getUserRollsCount(address)": {
        "notice": "How many times someone rolled."
      },
      "hasRolled(uint8,uint8,int8,int8)": {
        "notice": "Called by the front end if user wants to use the front end to  generate the random values. We just use this to store the result of the roll on the blockchain."
      },
      "hasRolledBefore(address)": {
        "notice": "Used to perform specific logic based on if user has rolled previoulsy or not."
      },
      "kill()": {
        "notice": "When the contract is killed, make sure to return all unspent tokens back to my wallet."
      },
      "rollDice(uint8,uint8,int8)": {
        "notice": "Requests randomness from Chainlink."
      },
      "rollDiceFast(uint8,uint8,int8)": {
        "notice": "Uses psuedo randomness based on blockchain data. This function is used to  compare speed of getting some sort of randomness straight from the blockchain  instead of waiting for Chainlink VRF to return a random value."
      }
    },
    "version": 1
  }
}